{
  "_format": "hh-sol-artifact-1",
  "contractName": "MyNFT",
  "sourceName": "contracts/ERC721.sol",
  "abi": [
    {
      "inputs": [
        {
          "internalType": "string",
          "name": "_name",
          "type": "string"
        },
        {
          "internalType": "string",
          "name": "_symbol",
          "type": "string"
        }
      ],
      "stateMutability": "nonpayable",
      "type": "constructor"
    },
    {
      "anonymous": false,
      "inputs": [
        {
          "indexed": true,
          "internalType": "address",
          "name": "owner",
          "type": "address"
        },
        {
          "indexed": true,
          "internalType": "address",
          "name": "approved",
          "type": "address"
        },
        {
          "indexed": true,
          "internalType": "uint256",
          "name": "tokenId",
          "type": "uint256"
        }
      ],
      "name": "Approval",
      "type": "event"
    },
    {
      "anonymous": false,
      "inputs": [
        {
          "indexed": true,
          "internalType": "address",
          "name": "owner",
          "type": "address"
        },
        {
          "indexed": true,
          "internalType": "address",
          "name": "operator",
          "type": "address"
        },
        {
          "indexed": false,
          "internalType": "bool",
          "name": "approved",
          "type": "bool"
        }
      ],
      "name": "ApprovalForAll",
      "type": "event"
    },
    {
      "anonymous": false,
      "inputs": [
        {
          "indexed": true,
          "internalType": "address",
          "name": "from",
          "type": "address"
        },
        {
          "indexed": true,
          "internalType": "address",
          "name": "to",
          "type": "address"
        },
        {
          "indexed": true,
          "internalType": "uint256",
          "name": "tokenId",
          "type": "uint256"
        }
      ],
      "name": "Transfer",
      "type": "event"
    },
    {
      "inputs": [
        {
          "internalType": "address",
          "name": "to",
          "type": "address"
        },
        {
          "internalType": "uint256",
          "name": "tokenId",
          "type": "uint256"
        }
      ],
      "name": "approve",
      "outputs": [],
      "stateMutability": "nonpayable",
      "type": "function"
    },
    {
      "inputs": [
        {
          "internalType": "address",
          "name": "owner",
          "type": "address"
        }
      ],
      "name": "balanceOf",
      "outputs": [
        {
          "internalType": "uint256",
          "name": "",
          "type": "uint256"
        }
      ],
      "stateMutability": "view",
      "type": "function"
    },
    {
      "inputs": [
        {
          "internalType": "uint256",
          "name": "tokenId",
          "type": "uint256"
        }
      ],
      "name": "getApproved",
      "outputs": [
        {
          "internalType": "address",
          "name": "",
          "type": "address"
        }
      ],
      "stateMutability": "view",
      "type": "function"
    },
    {
      "inputs": [
        {
          "internalType": "address",
          "name": "owner",
          "type": "address"
        },
        {
          "internalType": "address",
          "name": "operator",
          "type": "address"
        }
      ],
      "name": "isApprovedForAll",
      "outputs": [
        {
          "internalType": "bool",
          "name": "",
          "type": "bool"
        }
      ],
      "stateMutability": "view",
      "type": "function"
    },
    {
      "inputs": [
        {
          "internalType": "address",
          "name": "_to",
          "type": "address"
        },
        {
          "internalType": "string",
          "name": "_tokenURI",
          "type": "string"
        }
      ],
      "name": "mintNFT",
      "outputs": [
        {
          "internalType": "uint256",
          "name": "",
          "type": "uint256"
        }
      ],
      "stateMutability": "nonpayable",
      "type": "function"
    },
    {
      "inputs": [],
      "name": "name",
      "outputs": [
        {
          "internalType": "string",
          "name": "",
          "type": "string"
        }
      ],
      "stateMutability": "view",
      "type": "function"
    },
    {
      "inputs": [
        {
          "internalType": "uint256",
          "name": "tokenId",
          "type": "uint256"
        }
      ],
      "name": "ownerOf",
      "outputs": [
        {
          "internalType": "address",
          "name": "",
          "type": "address"
        }
      ],
      "stateMutability": "view",
      "type": "function"
    },
    {
      "inputs": [
        {
          "internalType": "address",
          "name": "from",
          "type": "address"
        },
        {
          "internalType": "address",
          "name": "to",
          "type": "address"
        },
        {
          "internalType": "uint256",
          "name": "tokenId",
          "type": "uint256"
        }
      ],
      "name": "safeTransferFrom",
      "outputs": [],
      "stateMutability": "nonpayable",
      "type": "function"
    },
    {
      "inputs": [
        {
          "internalType": "address",
          "name": "from",
          "type": "address"
        },
        {
          "internalType": "address",
          "name": "to",
          "type": "address"
        },
        {
          "internalType": "uint256",
          "name": "tokenId",
          "type": "uint256"
        },
        {
          "internalType": "bytes",
          "name": "_data",
          "type": "bytes"
        }
      ],
      "name": "safeTransferFrom",
      "outputs": [],
      "stateMutability": "nonpayable",
      "type": "function"
    },
    {
      "inputs": [
        {
          "internalType": "address",
          "name": "operator",
          "type": "address"
        },
        {
          "internalType": "bool",
          "name": "approved",
          "type": "bool"
        }
      ],
      "name": "setApprovalForAll",
      "outputs": [],
      "stateMutability": "nonpayable",
      "type": "function"
    },
    {
      "inputs": [
        {
          "internalType": "bytes4",
          "name": "interfaceId",
          "type": "bytes4"
        }
      ],
      "name": "supportsInterface",
      "outputs": [
        {
          "internalType": "bool",
          "name": "",
          "type": "bool"
        }
      ],
      "stateMutability": "view",
      "type": "function"
    },
    {
      "inputs": [],
      "name": "symbol",
      "outputs": [
        {
          "internalType": "string",
          "name": "",
          "type": "string"
        }
      ],
      "stateMutability": "view",
      "type": "function"
    },
    {
      "inputs": [
        {
          "internalType": "uint256",
          "name": "tokenId",
          "type": "uint256"
        }
      ],
      "name": "tokenURI",
      "outputs": [
        {
          "internalType": "string",
          "name": "",
          "type": "string"
        }
      ],
      "stateMutability": "view",
      "type": "function"
    },
    {
      "inputs": [
        {
          "internalType": "address",
          "name": "from",
          "type": "address"
        },
        {
          "internalType": "address",
          "name": "to",
          "type": "address"
        },
        {
          "internalType": "uint256",
          "name": "tokenId",
          "type": "uint256"
        }
      ],
      "name": "transferFrom",
      "outputs": [],
      "stateMutability": "nonpayable",
      "type": "function"
    }
  ],
  "bytecode": "0x60806040523480156200001157600080fd5b5060405162002f6538038062002f65833981810160405281019062000037919062000197565b818181600090805190602001906200005192919062000075565b5080600190805190602001906200006a92919062000075565b50505050506200037a565b82805462000083906200029f565b90600052602060002090601f016020900481019282620000a75760008555620000f3565b82601f10620000c257805160ff1916838001178555620000f3565b82800160010185558215620000f3579182015b82811115620000f2578251825591602001919060010190620000d5565b5b50905062000102919062000106565b5090565b5b808211156200012157600081600090555060010162000107565b5090565b60006200013c620001368462000233565b6200020a565b9050828152602081018484840111156200015557600080fd5b6200016284828562000269565b509392505050565b600082601f8301126200017c57600080fd5b81516200018e84826020860162000125565b91505092915050565b60008060408385031215620001ab57600080fd5b600083015167ffffffffffffffff811115620001c657600080fd5b620001d4858286016200016a565b925050602083015167ffffffffffffffff811115620001f257600080fd5b62000200858286016200016a565b9150509250929050565b60006200021662000229565b9050620002248282620002d5565b919050565b6000604051905090565b600067ffffffffffffffff8211156200025157620002506200033a565b5b6200025c8262000369565b9050602081019050919050565b60005b83811015620002895780820151818401526020810190506200026c565b8381111562000299576000848401525b50505050565b60006002820490506001821680620002b857607f821691505b60208210811415620002cf57620002ce6200030b565b5b50919050565b620002e08262000369565b810181811067ffffffffffffffff821117156200030257620003016200033a565b5b80604052505050565b7f4e487b7100000000000000000000000000000000000000000000000000000000600052602260045260246000fd5b7f4e487b7100000000000000000000000000000000000000000000000000000000600052604160045260246000fd5b6000601f19601f8301169050919050565b612bdb806200038a6000396000f3fe608060405234801561001057600080fd5b50600436106100ea5760003560e01c806370a082311161008c578063b88d4fde11610066578063b88d4fde1461025b578063c87b56dd14610277578063e985e9c5146102a7578063eacabe14146102d7576100ea565b806370a08231146101f157806395d89b4114610221578063a22cb4651461023f576100ea565b8063095ea7b3116100c8578063095ea7b31461016d57806323b872dd1461018957806342842e0e146101a55780636352211e146101c1576100ea565b806301ffc9a7146100ef57806306fdde031461011f578063081812fc1461013d575b600080fd5b61010960048036038101906101049190611c88565b610307565b604051610116919061208e565b60405180910390f35b6101276103e9565b60405161013491906120a9565b60405180910390f35b61015760048036038101906101529190611cda565b61047b565b6040516101649190612027565b60405180910390f35b61018760048036038101906101829190611c4c565b610500565b005b6101a3600480360381019061019e9190611af2565b610618565b005b6101bf60048036038101906101ba9190611af2565b610678565b005b6101db60048036038101906101d69190611cda565b610698565b6040516101e89190612027565b60405180910390f35b61020b60048036038101906102069190611a8d565b61074a565b60405161021891906122cb565b60405180910390f35b610229610802565b60405161023691906120a9565b60405180910390f35b61025960048036038101906102549190611bbc565b610894565b005b61027560048036038101906102709190611b41565b6108aa565b005b610291600480360381019061028c9190611cda565b61090c565b60405161029e91906120a9565b60405180910390f35b6102c160048036038101906102bc9190611ab6565b61091e565b6040516102ce919061208e565b60405180910390f35b6102f160048036038101906102ec9190611bf8565b6109b2565b6040516102fe91906122cb565b60405180910390f35b60007f80ac58cd000000000000000000000000000000000000000000000000000000007bffffffffffffffffffffffffffffffffffffffffffffffffffffffff1916827bffffffffffffffffffffffffffffffffffffffffffffffffffffffff191614806103d257507f5b5e139f000000000000000000000000000000000000000000000000000000007bffffffffffffffffffffffffffffffffffffffffffffffffffffffff1916827bffffffffffffffffffffffffffffffffffffffffffffffffffffffff1916145b806103e257506103e182610a45565b5b9050919050565b6060600080546103f890612521565b80601f016020809104026020016040519081016040528092919081815260200182805461042490612521565b80156104715780601f1061044657610100808354040283529160200191610471565b820191906000526020600020905b81548152906001019060200180831161045457829003601f168201915b5050505050905090565b600061048682610aaf565b6104c5576040517f08c379a00000000000000000000000000000000000000000000000000000000081526004016104bc9061222b565b60405180910390fd5b6004600083815260200190815260200160002060009054906101000a900473ffffffffffffffffffffffffffffffffffffffff169050919050565b600061050b82610698565b90508073ffffffffffffffffffffffffffffffffffffffff168373ffffffffffffffffffffffffffffffffffffffff16141561057c576040517f08c379a00000000000000000000000000000000000000000000000000000000081526004016105739061228b565b60405180910390fd5b8073ffffffffffffffffffffffffffffffffffffffff1661059b610b1b565b73ffffffffffffffffffffffffffffffffffffffff1614806105ca57506105c9816105c4610b1b565b61091e565b5b610609576040517f08c379a00000000000000000000000000000000000000000000000000000000081526004016106009061216b565b60405180910390fd5b6106138383610b23565b505050565b610629610623610b1b565b82610bdc565b610668576040517f08c379a000000000000000000000000000000000000000000000000000000000815260040161065f906122ab565b60405180910390fd5b610673838383610cba565b505050565b610693838383604051806020016040528060008152506108aa565b505050565b6000806002600084815260200190815260200160002060009054906101000a900473ffffffffffffffffffffffffffffffffffffffff169050600073ffffffffffffffffffffffffffffffffffffffff168173ffffffffffffffffffffffffffffffffffffffff161415610741576040517f08c379a0000000000000000000000000000000000000000000000000000000008152600401610738906121ab565b60405180910390fd5b80915050919050565b60008073ffffffffffffffffffffffffffffffffffffffff168273ffffffffffffffffffffffffffffffffffffffff1614156107bb576040517f08c379a00000000000000000000000000000000000000000000000000000000081526004016107b29061218b565b60405180910390fd5b600360008373ffffffffffffffffffffffffffffffffffffffff1673ffffffffffffffffffffffffffffffffffffffff168152602001908152602001600020549050919050565b60606001805461081190612521565b80601f016020809104026020016040519081016040528092919081815260200182805461083d90612521565b801561088a5780601f1061085f5761010080835404028352916020019161088a565b820191906000526020600020905b81548152906001019060200180831161086d57829003601f168201915b5050505050905090565b6108a661089f610b1b565b8383610f16565b5050565b6108bb6108b5610b1b565b83610bdc565b6108fa576040517f08c379a00000000000000000000000000000000000000000000000000000000081526004016108f1906122ab565b60405180910390fd5b61090684848484611083565b50505050565b6060610917826110df565b9050919050565b6000600560008473ffffffffffffffffffffffffffffffffffffffff1673ffffffffffffffffffffffffffffffffffffffff16815260200190815260200160002060008373ffffffffffffffffffffffffffffffffffffffff1673ffffffffffffffffffffffffffffffffffffffff16815260200190815260200160002060009054906101000a900460ff16905092915050565b60006109be6007611231565b60006109ca6007611247565b90506109d68482611255565b6109e08184611423565b808473ffffffffffffffffffffffffffffffffffffffff163373ffffffffffffffffffffffffffffffffffffffff167fddf252ad1be2c89b69c2b068fc378daa952ba7f163c4a11628f55a4df523b3ef60405160405180910390a48091505092915050565b60007f01ffc9a7000000000000000000000000000000000000000000000000000000007bffffffffffffffffffffffffffffffffffffffffffffffffffffffff1916827bffffffffffffffffffffffffffffffffffffffffffffffffffffffff1916149050919050565b60008073ffffffffffffffffffffffffffffffffffffffff166002600084815260200190815260200160002060009054906101000a900473ffffffffffffffffffffffffffffffffffffffff1673ffffffffffffffffffffffffffffffffffffffff1614159050919050565b600033905090565b816004600083815260200190815260200160002060006101000a81548173ffffffffffffffffffffffffffffffffffffffff021916908373ffffffffffffffffffffffffffffffffffffffff160217905550808273ffffffffffffffffffffffffffffffffffffffff16610b9683610698565b73ffffffffffffffffffffffffffffffffffffffff167f8c5be1e5ebec7d5bd14f71427d1e84f3dd0314c0f7b2291e5b200ac8c7c3b92560405160405180910390a45050565b6000610be782610aaf565b610c26576040517f08c379a0000000000000000000000000000000000000000000000000000000008152600401610c1d9061214b565b60405180910390fd5b6000610c3183610698565b90508073ffffffffffffffffffffffffffffffffffffffff168473ffffffffffffffffffffffffffffffffffffffff161480610ca057508373ffffffffffffffffffffffffffffffffffffffff16610c888461047b565b73ffffffffffffffffffffffffffffffffffffffff16145b80610cb15750610cb0818561091e565b5b91505092915050565b8273ffffffffffffffffffffffffffffffffffffffff16610cda82610698565b73ffffffffffffffffffffffffffffffffffffffff1614610d30576040517f08c379a0000000000000000000000000000000000000000000000000000000008152600401610d279061224b565b60405180910390fd5b600073ffffffffffffffffffffffffffffffffffffffff168273ffffffffffffffffffffffffffffffffffffffff161415610da0576040517f08c379a0000000000000000000000000000000000000000000000000000000008152600401610d979061210b565b60405180910390fd5b610dab838383611497565b610db6600082610b23565b6001600360008573ffffffffffffffffffffffffffffffffffffffff1673ffffffffffffffffffffffffffffffffffffffff1681526020019081526020016000206000828254610e069190612437565b925050819055506001600360008473ffffffffffffffffffffffffffffffffffffffff1673ffffffffffffffffffffffffffffffffffffffff1681526020019081526020016000206000828254610e5d91906123b0565b92505081905550816002600083815260200190815260200160002060006101000a81548173ffffffffffffffffffffffffffffffffffffffff021916908373ffffffffffffffffffffffffffffffffffffffff160217905550808273ffffffffffffffffffffffffffffffffffffffff168473ffffffffffffffffffffffffffffffffffffffff167fddf252ad1be2c89b69c2b068fc378daa952ba7f163c4a11628f55a4df523b3ef60405160405180910390a4505050565b8173ffffffffffffffffffffffffffffffffffffffff168373ffffffffffffffffffffffffffffffffffffffff161415610f85576040517f08c379a0000000000000000000000000000000000000000000000000000000008152600401610f7c9061212b565b60405180910390fd5b80600560008573ffffffffffffffffffffffffffffffffffffffff1673ffffffffffffffffffffffffffffffffffffffff16815260200190815260200160002060008473ffffffffffffffffffffffffffffffffffffffff1673ffffffffffffffffffffffffffffffffffffffff16815260200190815260200160002060006101000a81548160ff0219169083151502179055508173ffffffffffffffffffffffffffffffffffffffff168373ffffffffffffffffffffffffffffffffffffffff167f17307eab39ab6107e8899845ad3d59bd9653f200f220920489ca2b5937696c3183604051611076919061208e565b60405180910390a3505050565b61108e848484610cba565b61109a8484848461149c565b6110d9576040517f08c379a00000000000000000000000000000000000000000000000000000000081526004016110d0906120cb565b60405180910390fd5b50505050565b60606110ea82610aaf565b611129576040517f08c379a00000000000000000000000000000000000000000000000000000000081526004016111209061220b565b60405180910390fd5b600060066000848152602001908152602001600020805461114990612521565b80601f016020809104026020016040519081016040528092919081815260200182805461117590612521565b80156111c25780601f10611197576101008083540402835291602001916111c2565b820191906000526020600020905b8154815290600101906020018083116111a557829003601f168201915b5050505050905060006111d3611633565b90506000815114156111e957819250505061122c565b60008251111561121e578082604051602001611206929190612003565b6040516020818303038152906040529250505061122c565b6112278461164a565b925050505b919050565b6001816000016000828254019250508190555050565b600081600001549050919050565b600073ffffffffffffffffffffffffffffffffffffffff168273ffffffffffffffffffffffffffffffffffffffff1614156112c5576040517f08c379a00000000000000000000000000000000000000000000000000000000081526004016112bc906121eb565b60405180910390fd5b6112ce81610aaf565b1561130e576040517f08c379a0000000000000000000000000000000000000000000000000000000008152600401611305906120eb565b60405180910390fd5b61131a60008383611497565b6001600360008473ffffffffffffffffffffffffffffffffffffffff1673ffffffffffffffffffffffffffffffffffffffff168152602001908152602001600020600082825461136a91906123b0565b92505081905550816002600083815260200190815260200160002060006101000a81548173ffffffffffffffffffffffffffffffffffffffff021916908373ffffffffffffffffffffffffffffffffffffffff160217905550808273ffffffffffffffffffffffffffffffffffffffff16600073ffffffffffffffffffffffffffffffffffffffff167fddf252ad1be2c89b69c2b068fc378daa952ba7f163c4a11628f55a4df523b3ef60405160405180910390a45050565b61142c82610aaf565b61146b576040517f08c379a0000000000000000000000000000000000000000000000000000000008152600401611462906121cb565b60405180910390fd5b806006600084815260200190815260200160002090805190602001906114929291906118b1565b505050565b505050565b60006114bd8473ffffffffffffffffffffffffffffffffffffffff166116f1565b15611626578373ffffffffffffffffffffffffffffffffffffffff1663150b7a026114e6610b1b565b8786866040518563ffffffff1660e01b81526004016115089493929190612042565b602060405180830381600087803b15801561152257600080fd5b505af192505050801561155357506040513d601f19601f820116820180604052508101906115509190611cb1565b60015b6115d6573d8060008114611583576040519150601f19603f3d011682016040523d82523d6000602084013e611588565b606091505b506000815114156115ce576040517f08c379a00000000000000000000000000000000000000000000000000000000081526004016115c5906120cb565b60405180910390fd5b805181602001fd5b63150b7a0260e01b7bffffffffffffffffffffffffffffffffffffffffffffffffffffffff1916817bffffffffffffffffffffffffffffffffffffffffffffffffffffffff19161491505061162b565b600190505b949350505050565b606060405180602001604052806000815250905090565b606061165582610aaf565b611694576040517f08c379a000000000000000000000000000000000000000000000000000000000815260040161168b9061226b565b60405180910390fd5b600061169e611633565b905060008151116116be57604051806020016040528060008152506116e9565b806116c884611704565b6040516020016116d9929190612003565b6040516020818303038152906040525b915050919050565b600080823b905060008111915050919050565b6060600082141561174c576040518060400160405280600181526020017f300000000000000000000000000000000000000000000000000000000000000081525090506118ac565b600082905060005b6000821461177e57808061176790612584565b915050600a826117779190612406565b9150611754565b60008167ffffffffffffffff8111156117c0577f4e487b7100000000000000000000000000000000000000000000000000000000600052604160045260246000fd5b6040519080825280601f01601f1916602001820160405280156117f25781602001600182028036833780820191505090505b5090505b600085146118a55760018261180b9190612437565b9150600a8561181a91906125cd565b603061182691906123b0565b60f81b818381518110611862577f4e487b7100000000000000000000000000000000000000000000000000000000600052603260045260246000fd5b60200101907effffffffffffffffffffffffffffffffffffffffffffffffffffffffffffff1916908160001a905350600a8561189e9190612406565b94506117f6565b8093505050505b919050565b8280546118bd90612521565b90600052602060002090601f0160209004810192826118df5760008555611926565b82601f106118f857805160ff1916838001178555611926565b82800160010185558215611926579182015b8281111561192557825182559160200191906001019061190a565b5b5090506119339190611937565b5090565b5b80821115611950576000816000905550600101611938565b5090565b60006119676119628461230b565b6122e6565b90508281526020810184848401111561197f57600080fd5b61198a8482856124df565b509392505050565b60006119a56119a08461233c565b6122e6565b9050828152602081018484840111156119bd57600080fd5b6119c88482856124df565b509392505050565b6000813590506119df81612b49565b92915050565b6000813590506119f481612b60565b92915050565b600081359050611a0981612b77565b92915050565b600081519050611a1e81612b77565b92915050565b600082601f830112611a3557600080fd5b8135611a45848260208601611954565b91505092915050565b600082601f830112611a5f57600080fd5b8135611a6f848260208601611992565b91505092915050565b600081359050611a8781612b8e565b92915050565b600060208284031215611a9f57600080fd5b6000611aad848285016119d0565b91505092915050565b60008060408385031215611ac957600080fd5b6000611ad7858286016119d0565b9250506020611ae8858286016119d0565b9150509250929050565b600080600060608486031215611b0757600080fd5b6000611b15868287016119d0565b9350506020611b26868287016119d0565b9250506040611b3786828701611a78565b9150509250925092565b60008060008060808587031215611b5757600080fd5b6000611b65878288016119d0565b9450506020611b76878288016119d0565b9350506040611b8787828801611a78565b925050606085013567ffffffffffffffff811115611ba457600080fd5b611bb087828801611a24565b91505092959194509250565b60008060408385031215611bcf57600080fd5b6000611bdd858286016119d0565b9250506020611bee858286016119e5565b9150509250929050565b60008060408385031215611c0b57600080fd5b6000611c19858286016119d0565b925050602083013567ffffffffffffffff811115611c3657600080fd5b611c4285828601611a4e565b9150509250929050565b60008060408385031215611c5f57600080fd5b6000611c6d858286016119d0565b9250506020611c7e85828601611a78565b9150509250929050565b600060208284031215611c9a57600080fd5b6000611ca8848285016119fa565b91505092915050565b600060208284031215611cc357600080fd5b6000611cd184828501611a0f565b91505092915050565b600060208284031215611cec57600080fd5b6000611cfa84828501611a78565b91505092915050565b611d0c8161246b565b82525050565b611d1b8161247d565b82525050565b6000611d2c8261236d565b611d368185612383565b9350611d468185602086016124ee565b611d4f816126ba565b840191505092915050565b6000611d6582612378565b611d6f8185612394565b9350611d7f8185602086016124ee565b611d88816126ba565b840191505092915050565b6000611d9e82612378565b611da881856123a5565b9350611db88185602086016124ee565b80840191505092915050565b6000611dd1603283612394565b9150611ddc826126cb565b604082019050919050565b6000611df4601c83612394565b9150611dff8261271a565b602082019050919050565b6000611e17602483612394565b9150611e2282612743565b604082019050919050565b6000611e3a601983612394565b9150611e4582612792565b602082019050919050565b6000611e5d602c83612394565b9150611e68826127bb565b604082019050919050565b6000611e80603883612394565b9150611e8b8261280a565b604082019050919050565b6000611ea3602a83612394565b9150611eae82612859565b604082019050919050565b6000611ec6602983612394565b9150611ed1826128a8565b604082019050919050565b6000611ee9602e83612394565b9150611ef4826128f7565b604082019050919050565b6000611f0c602083612394565b9150611f1782612946565b602082019050919050565b6000611f2f603183612394565b9150611f3a8261296f565b604082019050919050565b6000611f52602c83612394565b9150611f5d826129be565b604082019050919050565b6000611f75602983612394565b9150611f8082612a0d565b604082019050919050565b6000611f98602f83612394565b9150611fa382612a5c565b604082019050919050565b6000611fbb602183612394565b9150611fc682612aab565b604082019050919050565b6000611fde603183612394565b9150611fe982612afa565b604082019050919050565b611ffd816124d5565b82525050565b600061200f8285611d93565b915061201b8284611d93565b91508190509392505050565b600060208201905061203c6000830184611d03565b92915050565b60006080820190506120576000830187611d03565b6120646020830186611d03565b6120716040830185611ff4565b81810360608301526120838184611d21565b905095945050505050565b60006020820190506120a36000830184611d12565b92915050565b600060208201905081810360008301526120c38184611d5a565b905092915050565b600060208201905081810360008301526120e481611dc4565b9050919050565b6000602082019050818103600083015261210481611de7565b9050919050565b6000602082019050818103600083015261212481611e0a565b9050919050565b6000602082019050818103600083015261214481611e2d565b9050919050565b6000602082019050818103600083015261216481611e50565b9050919050565b6000602082019050818103600083015261218481611e73565b9050919050565b600060208201905081810360008301526121a481611e96565b9050919050565b600060208201905081810360008301526121c481611eb9565b9050919050565b600060208201905081810360008301526121e481611edc565b9050919050565b6000602082019050818103600083015261220481611eff565b9050919050565b6000602082019050818103600083015261222481611f22565b9050919050565b6000602082019050818103600083015261224481611f45565b9050919050565b6000602082019050818103600083015261226481611f68565b9050919050565b6000602082019050818103600083015261228481611f8b565b9050919050565b600060208201905081810360008301526122a481611fae565b9050919050565b600060208201905081810360008301526122c481611fd1565b9050919050565b60006020820190506122e06000830184611ff4565b92915050565b60006122f0612301565b90506122fc8282612553565b919050565b6000604051905090565b600067ffffffffffffffff8211156123265761232561268b565b5b61232f826126ba565b9050602081019050919050565b600067ffffffffffffffff8211156123575761235661268b565b5b612360826126ba565b9050602081019050919050565b600081519050919050565b600081519050919050565b600082825260208201905092915050565b600082825260208201905092915050565b600081905092915050565b60006123bb826124d5565b91506123c6836124d5565b9250827fffffffffffffffffffffffffffffffffffffffffffffffffffffffffffffffff038211156123fb576123fa6125fe565b5b828201905092915050565b6000612411826124d5565b915061241c836124d5565b92508261242c5761242b61262d565b5b828204905092915050565b6000612442826124d5565b915061244d836124d5565b9250828210156124605761245f6125fe565b5b828203905092915050565b6000612476826124b5565b9050919050565b60008115159050919050565b60007fffffffff0000000000000000000000000000000000000000000000000000000082169050919050565b600073ffffffffffffffffffffffffffffffffffffffff82169050919050565b6000819050919050565b82818337600083830152505050565b60005b8381101561250c5780820151818401526020810190506124f1565b8381111561251b576000848401525b50505050565b6000600282049050600182168061253957607f821691505b6020821081141561254d5761254c61265c565b5b50919050565b61255c826126ba565b810181811067ffffffffffffffff8211171561257b5761257a61268b565b5b80604052505050565b600061258f826124d5565b91507fffffffffffffffffffffffffffffffffffffffffffffffffffffffffffffffff8214156125c2576125c16125fe565b5b600182019050919050565b60006125d8826124d5565b91506125e3836124d5565b9250826125f3576125f261262d565b5b828206905092915050565b7f4e487b7100000000000000000000000000000000000000000000000000000000600052601160045260246000fd5b7f4e487b7100000000000000000000000000000000000000000000000000000000600052601260045260246000fd5b7f4e487b7100000000000000000000000000000000000000000000000000000000600052602260045260246000fd5b7f4e487b7100000000000000000000000000000000000000000000000000000000600052604160045260246000fd5b6000601f19601f8301169050919050565b7f4552433732313a207472616e7366657220746f206e6f6e20455243373231526560008201527f63656976657220696d706c656d656e7465720000000000000000000000000000602082015250565b7f4552433732313a20746f6b656e20616c7265616479206d696e74656400000000600082015250565b7f4552433732313a207472616e7366657220746f20746865207a65726f2061646460008201527f7265737300000000000000000000000000000000000000000000000000000000602082015250565b7f4552433732313a20617070726f766520746f2063616c6c657200000000000000600082015250565b7f4552433732313a206f70657261746f7220717565727920666f72206e6f6e657860008201527f697374656e7420746f6b656e0000000000000000000000000000000000000000602082015250565b7f4552433732313a20617070726f76652063616c6c6572206973206e6f74206f7760008201527f6e6572206e6f7220617070726f76656420666f7220616c6c0000000000000000602082015250565b7f4552433732313a2062616c616e636520717565727920666f7220746865207a6560008201527f726f206164647265737300000000000000000000000000000000000000000000602082015250565b7f4552433732313a206f776e657220717565727920666f72206e6f6e657869737460008201527f656e7420746f6b656e0000000000000000000000000000000000000000000000602082015250565b7f45524337323155524953746f726167653a2055524920736574206f66206e6f6e60008201527f6578697374656e7420746f6b656e000000000000000000000000000000000000602082015250565b7f4552433732313a206d696e7420746f20746865207a65726f2061646472657373600082015250565b7f45524337323155524953746f726167653a2055524920717565727920666f722060008201527f6e6f6e6578697374656e7420746f6b656e000000000000000000000000000000602082015250565b7f4552433732313a20617070726f76656420717565727920666f72206e6f6e657860008201527f697374656e7420746f6b656e0000000000000000000000000000000000000000602082015250565b7f4552433732313a207472616e73666572206f6620746f6b656e2074686174206960008201527f73206e6f74206f776e0000000000000000000000000000000000000000000000602082015250565b7f4552433732314d657461646174613a2055524920717565727920666f72206e6f60008201527f6e6578697374656e7420746f6b656e0000000000000000000000000000000000602082015250565b7f4552433732313a20617070726f76616c20746f2063757272656e74206f776e6560008201527f7200000000000000000000000000000000000000000000000000000000000000602082015250565b7f4552433732313a207472616e736665722063616c6c6572206973206e6f74206f60008201527f776e6572206e6f7220617070726f766564000000000000000000000000000000602082015250565b612b528161246b565b8114612b5d57600080fd5b50565b612b698161247d565b8114612b7457600080fd5b50565b612b8081612489565b8114612b8b57600080fd5b50565b612b97816124d5565b8114612ba257600080fd5b5056fea2646970667358221220a76cc46be240fbe7ee13044540c1dde07b56521e8c0ee7777c9f6bcf99d3435d64736f6c63430008040033",
  "linkReferences": {},
  "deployedLinkReferences": {}
}