{
  "_format": "hh-sol-artifact-1",
  "contractName": "ERC4907",
  "sourceName": "contracts/ERC4907Demo.sol",
  "abi": [
    {
      "inputs": [
        {
          "internalType": "string",
          "name": "name_",
          "type": "string"
        },
        {
          "internalType": "string",
          "name": "symbol_",
          "type": "string"
        }
      ],
      "stateMutability": "nonpayable",
      "type": "constructor"
    },
    {
      "anonymous": false,
      "inputs": [
        {
          "indexed": true,
          "internalType": "address",
          "name": "owner",
          "type": "address"
        },
        {
          "indexed": true,
          "internalType": "address",
          "name": "approved",
          "type": "address"
        },
        {
          "indexed": true,
          "internalType": "uint256",
          "name": "tokenId",
          "type": "uint256"
        }
      ],
      "name": "Approval",
      "type": "event"
    },
    {
      "anonymous": false,
      "inputs": [
        {
          "indexed": true,
          "internalType": "address",
          "name": "owner",
          "type": "address"
        },
        {
          "indexed": true,
          "internalType": "address",
          "name": "operator",
          "type": "address"
        },
        {
          "indexed": false,
          "internalType": "bool",
          "name": "approved",
          "type": "bool"
        }
      ],
      "name": "ApprovalForAll",
      "type": "event"
    },
    {
      "anonymous": false,
      "inputs": [
        {
          "indexed": true,
          "internalType": "address",
          "name": "from",
          "type": "address"
        },
        {
          "indexed": true,
          "internalType": "address",
          "name": "to",
          "type": "address"
        },
        {
          "indexed": true,
          "internalType": "uint256",
          "name": "tokenId",
          "type": "uint256"
        }
      ],
      "name": "Transfer",
      "type": "event"
    },
    {
      "anonymous": false,
      "inputs": [
        {
          "indexed": true,
          "internalType": "uint256",
          "name": "tokenId",
          "type": "uint256"
        },
        {
          "indexed": true,
          "internalType": "address",
          "name": "user",
          "type": "address"
        },
        {
          "indexed": false,
          "internalType": "uint64",
          "name": "expires",
          "type": "uint64"
        }
      ],
      "name": "UpdateUser",
      "type": "event"
    },
    {
      "inputs": [
        {
          "internalType": "address",
          "name": "to",
          "type": "address"
        },
        {
          "internalType": "uint256",
          "name": "tokenId",
          "type": "uint256"
        }
      ],
      "name": "approve",
      "outputs": [],
      "stateMutability": "nonpayable",
      "type": "function"
    },
    {
      "inputs": [
        {
          "internalType": "address",
          "name": "owner",
          "type": "address"
        }
      ],
      "name": "balanceOf",
      "outputs": [
        {
          "internalType": "uint256",
          "name": "",
          "type": "uint256"
        }
      ],
      "stateMutability": "view",
      "type": "function"
    },
    {
      "inputs": [
        {
          "internalType": "uint256",
          "name": "tokenId",
          "type": "uint256"
        }
      ],
      "name": "getApproved",
      "outputs": [
        {
          "internalType": "address",
          "name": "",
          "type": "address"
        }
      ],
      "stateMutability": "view",
      "type": "function"
    },
    {
      "inputs": [
        {
          "internalType": "address",
          "name": "owner",
          "type": "address"
        },
        {
          "internalType": "address",
          "name": "operator",
          "type": "address"
        }
      ],
      "name": "isApprovedForAll",
      "outputs": [
        {
          "internalType": "bool",
          "name": "",
          "type": "bool"
        }
      ],
      "stateMutability": "view",
      "type": "function"
    },
    {
      "inputs": [
        {
          "internalType": "address",
          "name": "_to",
          "type": "address"
        },
        {
          "internalType": "string",
          "name": "_tokenURI",
          "type": "string"
        }
      ],
      "name": "mintNFT",
      "outputs": [
        {
          "internalType": "uint256",
          "name": "",
          "type": "uint256"
        }
      ],
      "stateMutability": "nonpayable",
      "type": "function"
    },
    {
      "inputs": [],
      "name": "name",
      "outputs": [
        {
          "internalType": "string",
          "name": "",
          "type": "string"
        }
      ],
      "stateMutability": "view",
      "type": "function"
    },
    {
      "inputs": [
        {
          "internalType": "uint256",
          "name": "tokenId",
          "type": "uint256"
        }
      ],
      "name": "ownerOf",
      "outputs": [
        {
          "internalType": "address",
          "name": "",
          "type": "address"
        }
      ],
      "stateMutability": "view",
      "type": "function"
    },
    {
      "inputs": [
        {
          "internalType": "address",
          "name": "from",
          "type": "address"
        },
        {
          "internalType": "address",
          "name": "to",
          "type": "address"
        },
        {
          "internalType": "uint256",
          "name": "tokenId",
          "type": "uint256"
        }
      ],
      "name": "safeTransferFrom",
      "outputs": [],
      "stateMutability": "nonpayable",
      "type": "function"
    },
    {
      "inputs": [
        {
          "internalType": "address",
          "name": "from",
          "type": "address"
        },
        {
          "internalType": "address",
          "name": "to",
          "type": "address"
        },
        {
          "internalType": "uint256",
          "name": "tokenId",
          "type": "uint256"
        },
        {
          "internalType": "bytes",
          "name": "data",
          "type": "bytes"
        }
      ],
      "name": "safeTransferFrom",
      "outputs": [],
      "stateMutability": "nonpayable",
      "type": "function"
    },
    {
      "inputs": [
        {
          "internalType": "address",
          "name": "operator",
          "type": "address"
        },
        {
          "internalType": "bool",
          "name": "approved",
          "type": "bool"
        }
      ],
      "name": "setApprovalForAll",
      "outputs": [],
      "stateMutability": "nonpayable",
      "type": "function"
    },
    {
      "inputs": [
        {
          "internalType": "uint256",
          "name": "tokenId",
          "type": "uint256"
        },
        {
          "internalType": "address",
          "name": "user",
          "type": "address"
        },
        {
          "internalType": "uint64",
          "name": "expires",
          "type": "uint64"
        }
      ],
      "name": "setUser",
      "outputs": [],
      "stateMutability": "nonpayable",
      "type": "function"
    },
    {
      "inputs": [
        {
          "internalType": "bytes4",
          "name": "interfaceId",
          "type": "bytes4"
        }
      ],
      "name": "supportsInterface",
      "outputs": [
        {
          "internalType": "bool",
          "name": "",
          "type": "bool"
        }
      ],
      "stateMutability": "view",
      "type": "function"
    },
    {
      "inputs": [],
      "name": "symbol",
      "outputs": [
        {
          "internalType": "string",
          "name": "",
          "type": "string"
        }
      ],
      "stateMutability": "view",
      "type": "function"
    },
    {
      "inputs": [
        {
          "internalType": "uint256",
          "name": "tokenId",
          "type": "uint256"
        }
      ],
      "name": "tokenURI",
      "outputs": [
        {
          "internalType": "string",
          "name": "",
          "type": "string"
        }
      ],
      "stateMutability": "view",
      "type": "function"
    },
    {
      "inputs": [
        {
          "internalType": "address",
          "name": "from",
          "type": "address"
        },
        {
          "internalType": "address",
          "name": "to",
          "type": "address"
        },
        {
          "internalType": "uint256",
          "name": "tokenId",
          "type": "uint256"
        }
      ],
      "name": "transferFrom",
      "outputs": [],
      "stateMutability": "nonpayable",
      "type": "function"
    },
    {
      "inputs": [
        {
          "internalType": "uint256",
          "name": "tokenId",
          "type": "uint256"
        }
      ],
      "name": "userExpires",
      "outputs": [
        {
          "internalType": "uint256",
          "name": "",
          "type": "uint256"
        }
      ],
      "stateMutability": "view",
      "type": "function"
    },
    {
      "inputs": [
        {
          "internalType": "uint256",
          "name": "tokenId",
          "type": "uint256"
        }
      ],
      "name": "userOf",
      "outputs": [
        {
          "internalType": "address",
          "name": "",
          "type": "address"
        }
      ],
      "stateMutability": "view",
      "type": "function"
    }
  ],
  "bytecode": "0x60806040523480156200001157600080fd5b50604051620031ef380380620031ef833981810160405281019062000037919062000197565b818181600090805190602001906200005192919062000075565b5080600190805190602001906200006a92919062000075565b50505050506200037a565b82805462000083906200029f565b90600052602060002090601f016020900481019282620000a75760008555620000f3565b82601f10620000c257805160ff1916838001178555620000f3565b82800160010185558215620000f3579182015b82811115620000f2578251825591602001919060010190620000d5565b5b50905062000102919062000106565b5090565b5b808211156200012157600081600090555060010162000107565b5090565b60006200013c620001368462000233565b6200020a565b9050828152602081018484840111156200015557600080fd5b6200016284828562000269565b509392505050565b600082601f8301126200017c57600080fd5b81516200018e84826020860162000125565b91505092915050565b60008060408385031215620001ab57600080fd5b600083015167ffffffffffffffff811115620001c657600080fd5b620001d4858286016200016a565b925050602083015167ffffffffffffffff811115620001f257600080fd5b62000200858286016200016a565b9150509250929050565b60006200021662000229565b9050620002248282620002d5565b919050565b6000604051905090565b600067ffffffffffffffff8211156200025157620002506200033a565b5b6200025c8262000369565b9050602081019050919050565b60005b83811015620002895780820151818401526020810190506200026c565b8381111562000299576000848401525b50505050565b60006002820490506001821680620002b857607f821691505b60208210811415620002cf57620002ce6200030b565b5b50919050565b620002e08262000369565b810181811067ffffffffffffffff821117156200030257620003016200033a565b5b80604052505050565b7f4e487b7100000000000000000000000000000000000000000000000000000000600052602260045260246000fd5b7f4e487b7100000000000000000000000000000000000000000000000000000000600052604160045260246000fd5b6000601f19601f8301169050919050565b612e65806200038a6000396000f3fe608060405234801561001057600080fd5b506004361061010b5760003560e01c80638fc88c48116100a2578063c2f1f14a11610071578063c2f1f14a146102c8578063c87b56dd146102f8578063e030565e14610328578063e985e9c514610344578063eacabe14146103745761010b565b80638fc88c481461024257806395d89b4114610272578063a22cb46514610290578063b88d4fde146102ac5761010b565b806323b872dd116100de57806323b872dd146101aa57806342842e0e146101c65780636352211e146101e257806370a08231146102125761010b565b806301ffc9a71461011057806306fdde0314610140578063081812fc1461015e578063095ea7b31461018e575b600080fd5b61012a6004803603810190610125919061200e565b6103a4565b6040516101379190612418565b60405180910390f35b61014861041e565b604051610155919061244e565b60405180910390f35b61017860048036038101906101739190612060565b6104b0565b60405161018591906123b1565b60405180910390f35b6101a860048036038101906101a39190611fd2565b6104f6565b005b6101c460048036038101906101bf9190611e78565b61060e565b005b6101e060048036038101906101db9190611e78565b61066e565b005b6101fc60048036038101906101f79190612060565b61068e565b60405161020991906123b1565b60405180910390f35b61022c60048036038101906102279190611e13565b610740565b6040516102399190612610565b60405180910390f35b61025c60048036038101906102579190612060565b6107f8565b6040516102699190612610565b60405180910390f35b61027a610836565b604051610287919061244e565b60405180910390f35b6102aa60048036038101906102a59190611f42565b6108c8565b005b6102c660048036038101906102c19190611ec7565b6108de565b005b6102e260048036038101906102dd9190612060565b610940565b6040516102ef91906123b1565b60405180910390f35b610312600480360381019061030d9190612060565b6109c5565b60405161031f919061244e565b60405180910390f35b610342600480360381019061033d9190612089565b6109d7565b005b61035e60048036038101906103599190611e3c565b610afa565b60405161036b9190612418565b60405180910390f35b61038e60048036038101906103899190611f7e565b610b8e565b60405161039b9190612610565b60405180910390f35b60007fad092b5c000000000000000000000000000000000000000000000000000000007bffffffffffffffffffffffffffffffffffffffffffffffffffffffff1916827bffffffffffffffffffffffffffffffffffffffffffffffffffffffff19161480610417575061041682610bc6565b5b9050919050565b60606000805461042d906128a7565b80601f0160208091040260200160405190810160405280929190818152602001828054610459906128a7565b80156104a65780601f1061047b576101008083540402835291602001916104a6565b820191906000526020600020905b81548152906001019060200180831161048957829003601f168201915b5050505050905090565b60006104bb82610ca8565b6004600083815260200190815260200160002060009054906101000a900473ffffffffffffffffffffffffffffffffffffffff169050919050565b60006105018261068e565b90508073ffffffffffffffffffffffffffffffffffffffff168373ffffffffffffffffffffffffffffffffffffffff161415610572576040517f08c379a0000000000000000000000000000000000000000000000000000000008152600401610569906125d0565b60405180910390fd5b8073ffffffffffffffffffffffffffffffffffffffff16610591610cf3565b73ffffffffffffffffffffffffffffffffffffffff1614806105c057506105bf816105ba610cf3565b610afa565b5b6105ff576040517f08c379a00000000000000000000000000000000000000000000000000000000081526004016105f690612570565b60405180910390fd5b6106098383610cfb565b505050565b61061f610619610cf3565b82610db4565b61065e576040517f08c379a0000000000000000000000000000000000000000000000000000000008152600401610655906125f0565b60405180910390fd5b610669838383610e49565b505050565b610689838383604051806020016040528060008152506108de565b505050565b6000806002600084815260200190815260200160002060009054906101000a900473ffffffffffffffffffffffffffffffffffffffff169050600073ffffffffffffffffffffffffffffffffffffffff168173ffffffffffffffffffffffffffffffffffffffff161415610737576040517f08c379a000000000000000000000000000000000000000000000000000000000815260040161072e906125b0565b60405180910390fd5b80915050919050565b60008073ffffffffffffffffffffffffffffffffffffffff168273ffffffffffffffffffffffffffffffffffffffff1614156107b1576040517f08c379a00000000000000000000000000000000000000000000000000000000081526004016107a890612530565b60405180910390fd5b600360008373ffffffffffffffffffffffffffffffffffffffff1673ffffffffffffffffffffffffffffffffffffffff168152602001908152602001600020549050919050565b60006007600083815260200190815260200160002060000160149054906101000a900467ffffffffffffffff1667ffffffffffffffff169050919050565b606060018054610845906128a7565b80601f0160208091040260200160405190810160405280929190818152602001828054610871906128a7565b80156108be5780601f10610893576101008083540402835291602001916108be565b820191906000526020600020905b8154815290600101906020018083116108a157829003601f168201915b5050505050905090565b6108da6108d3610cf3565b83836110b0565b5050565b6108ef6108e9610cf3565b83610db4565b61092e576040517f08c379a0000000000000000000000000000000000000000000000000000000008152600401610925906125f0565b60405180910390fd5b61093a8484848461121d565b50505050565b6000426007600084815260200190815260200160002060000160149054906101000a900467ffffffffffffffff1667ffffffffffffffff16106109bb576007600083815260200190815260200160002060000160009054906101000a900473ffffffffffffffffffffffffffffffffffffffff1690506109c0565b600090505b919050565b60606109d082611279565b9050919050565b6109e13384610db4565b610a20576040517f08c379a0000000000000000000000000000000000000000000000000000000008152600401610a1790612470565b60405180910390fd5b6000600760008581526020019081526020016000209050828160000160006101000a81548173ffffffffffffffffffffffffffffffffffffffff021916908373ffffffffffffffffffffffffffffffffffffffff160217905550818160000160146101000a81548167ffffffffffffffff021916908367ffffffffffffffff1602179055508273ffffffffffffffffffffffffffffffffffffffff16847f4e06b4e7000e659094299b3533b47b6aa8ad048e95e872d23d1f4ee55af89cfe84604051610aec919061262b565b60405180910390a350505050565b6000600560008473ffffffffffffffffffffffffffffffffffffffff1673ffffffffffffffffffffffffffffffffffffffff16815260200190815260200160002060008373ffffffffffffffffffffffffffffffffffffffff1673ffffffffffffffffffffffffffffffffffffffff16815260200190815260200160002060009054906101000a900460ff16905092915050565b6000610b9a600861138c565b6000610ba660086113a2565b9050610bb284826113b0565b610bbc818461158a565b8091505092915050565b60007f80ac58cd000000000000000000000000000000000000000000000000000000007bffffffffffffffffffffffffffffffffffffffffffffffffffffffff1916827bffffffffffffffffffffffffffffffffffffffffffffffffffffffff19161480610c9157507f5b5e139f000000000000000000000000000000000000000000000000000000007bffffffffffffffffffffffffffffffffffffffffffffffffffffffff1916827bffffffffffffffffffffffffffffffffffffffffffffffffffffffff1916145b80610ca15750610ca0826115fe565b5b9050919050565b610cb181611668565b610cf0576040517f08c379a0000000000000000000000000000000000000000000000000000000008152600401610ce7906125b0565b60405180910390fd5b50565b600033905090565b816004600083815260200190815260200160002060006101000a81548173ffffffffffffffffffffffffffffffffffffffff021916908373ffffffffffffffffffffffffffffffffffffffff160217905550808273ffffffffffffffffffffffffffffffffffffffff16610d6e8361068e565b73ffffffffffffffffffffffffffffffffffffffff167f8c5be1e5ebec7d5bd14f71427d1e84f3dd0314c0f7b2291e5b200ac8c7c3b92560405160405180910390a45050565b600080610dc08361068e565b90508073ffffffffffffffffffffffffffffffffffffffff168473ffffffffffffffffffffffffffffffffffffffff161480610e025750610e018185610afa565b5b80610e4057508373ffffffffffffffffffffffffffffffffffffffff16610e28846104b0565b73ffffffffffffffffffffffffffffffffffffffff16145b91505092915050565b8273ffffffffffffffffffffffffffffffffffffffff16610e698261068e565b73ffffffffffffffffffffffffffffffffffffffff1614610ebf576040517f08c379a0000000000000000000000000000000000000000000000000000000008152600401610eb6906124b0565b60405180910390fd5b600073ffffffffffffffffffffffffffffffffffffffff168273ffffffffffffffffffffffffffffffffffffffff161415610f2f576040517f08c379a0000000000000000000000000000000000000000000000000000000008152600401610f26906124f0565b60405180910390fd5b610f3a8383836116d4565b610f45600082610cfb565b6001600360008573ffffffffffffffffffffffffffffffffffffffff1673ffffffffffffffffffffffffffffffffffffffff1681526020019081526020016000206000828254610f959190612797565b925050819055506001600360008473ffffffffffffffffffffffffffffffffffffffff1673ffffffffffffffffffffffffffffffffffffffff1681526020019081526020016000206000828254610fec9190612710565b92505081905550816002600083815260200190815260200160002060006101000a81548173ffffffffffffffffffffffffffffffffffffffff021916908373ffffffffffffffffffffffffffffffffffffffff160217905550808273ffffffffffffffffffffffffffffffffffffffff168473ffffffffffffffffffffffffffffffffffffffff167fddf252ad1be2c89b69c2b068fc378daa952ba7f163c4a11628f55a4df523b3ef60405160405180910390a46110ab838383611832565b505050565b8173ffffffffffffffffffffffffffffffffffffffff168373ffffffffffffffffffffffffffffffffffffffff16141561111f576040517f08c379a000000000000000000000000000000000000000000000000000000000815260040161111690612510565b60405180910390fd5b80600560008573ffffffffffffffffffffffffffffffffffffffff1673ffffffffffffffffffffffffffffffffffffffff16815260200190815260200160002060008473ffffffffffffffffffffffffffffffffffffffff1673ffffffffffffffffffffffffffffffffffffffff16815260200190815260200160002060006101000a81548160ff0219169083151502179055508173ffffffffffffffffffffffffffffffffffffffff168373ffffffffffffffffffffffffffffffffffffffff167f17307eab39ab6107e8899845ad3d59bd9653f200f220920489ca2b5937696c31836040516112109190612418565b60405180910390a3505050565b611228848484610e49565b61123484848484611837565b611273576040517f08c379a000000000000000000000000000000000000000000000000000000000815260040161126a90612490565b60405180910390fd5b50505050565b606061128482610ca8565b60006006600084815260200190815260200160002080546112a4906128a7565b80601f01602080910402602001604051908101604052809291908181526020018280546112d0906128a7565b801561131d5780601f106112f25761010080835404028352916020019161131d565b820191906000526020600020905b81548152906001019060200180831161130057829003601f168201915b50505050509050600061132e6119ce565b9050600081511415611344578192505050611387565b60008251111561137957808260405160200161136192919061238d565b60405160208183030381529060405292505050611387565b611382846119e5565b925050505b919050565b6001816000016000828254019250508190555050565b600081600001549050919050565b600073ffffffffffffffffffffffffffffffffffffffff168273ffffffffffffffffffffffffffffffffffffffff161415611420576040517f08c379a000000000000000000000000000000000000000000000000000000000815260040161141790612590565b60405180910390fd5b61142981611668565b15611469576040517f08c379a0000000000000000000000000000000000000000000000000000000008152600401611460906124d0565b60405180910390fd5b611475600083836116d4565b6001600360008473ffffffffffffffffffffffffffffffffffffffff1673ffffffffffffffffffffffffffffffffffffffff16815260200190815260200160002060008282546114c59190612710565b92505081905550816002600083815260200190815260200160002060006101000a81548173ffffffffffffffffffffffffffffffffffffffff021916908373ffffffffffffffffffffffffffffffffffffffff160217905550808273ffffffffffffffffffffffffffffffffffffffff16600073ffffffffffffffffffffffffffffffffffffffff167fddf252ad1be2c89b69c2b068fc378daa952ba7f163c4a11628f55a4df523b3ef60405160405180910390a461158660008383611832565b5050565b61159382611668565b6115d2576040517f08c379a00000000000000000000000000000000000000000000000000000000081526004016115c990612550565b60405180910390fd5b806006600084815260200190815260200160002090805190602001906115f9929190611c22565b505050565b60007f01ffc9a7000000000000000000000000000000000000000000000000000000007bffffffffffffffffffffffffffffffffffffffffffffffffffffffff1916827bffffffffffffffffffffffffffffffffffffffffffffffffffffffff1916149050919050565b60008073ffffffffffffffffffffffffffffffffffffffff166002600084815260200190815260200160002060009054906101000a900473ffffffffffffffffffffffffffffffffffffffff1673ffffffffffffffffffffffffffffffffffffffff1614159050919050565b6116df838383611a4d565b8173ffffffffffffffffffffffffffffffffffffffff168373ffffffffffffffffffffffffffffffffffffffff161415801561177e5750600073ffffffffffffffffffffffffffffffffffffffff166007600083815260200190815260200160002060000160009054906101000a900473ffffffffffffffffffffffffffffffffffffffff1673ffffffffffffffffffffffffffffffffffffffff1614155b1561182d5760076000828152602001908152602001600020600080820160006101000a81549073ffffffffffffffffffffffffffffffffffffffff02191690556000820160146101000a81549067ffffffffffffffff02191690555050600073ffffffffffffffffffffffffffffffffffffffff16817f4e06b4e7000e659094299b3533b47b6aa8ad048e95e872d23d1f4ee55af89cfe60006040516118249190612433565b60405180910390a35b505050565b505050565b60006118588473ffffffffffffffffffffffffffffffffffffffff16611a52565b156119c1578373ffffffffffffffffffffffffffffffffffffffff1663150b7a02611881610cf3565b8786866040518563ffffffff1660e01b81526004016118a394939291906123cc565b602060405180830381600087803b1580156118bd57600080fd5b505af19250505080156118ee57506040513d601f19601f820116820180604052508101906118eb9190612037565b60015b611971573d806000811461191e576040519150601f19603f3d011682016040523d82523d6000602084013e611923565b606091505b50600081511415611969576040517f08c379a000000000000000000000000000000000000000000000000000000000815260040161196090612490565b60405180910390fd5b805181602001fd5b63150b7a0260e01b7bffffffffffffffffffffffffffffffffffffffffffffffffffffffff1916817bffffffffffffffffffffffffffffffffffffffffffffffffffffffff1916149150506119c6565b600190505b949350505050565b606060405180602001604052806000815250905090565b60606119f082610ca8565b60006119fa6119ce565b90506000815111611a1a5760405180602001604052806000815250611a45565b80611a2484611a75565b604051602001611a3592919061238d565b6040516020818303038152906040525b915050919050565b505050565b6000808273ffffffffffffffffffffffffffffffffffffffff163b119050919050565b60606000821415611abd576040518060400160405280600181526020017f30000000000000000000000000000000000000000000000000000000000000008152509050611c1d565b600082905060005b60008214611aef578080611ad89061290a565b915050600a82611ae89190612766565b9150611ac5565b60008167ffffffffffffffff811115611b31577f4e487b7100000000000000000000000000000000000000000000000000000000600052604160045260246000fd5b6040519080825280601f01601f191660200182016040528015611b635781602001600182028036833780820191505090505b5090505b60008514611c1657600182611b7c9190612797565b9150600a85611b8b9190612953565b6030611b979190612710565b60f81b818381518110611bd3577f4e487b7100000000000000000000000000000000000000000000000000000000600052603260045260246000fd5b60200101907effffffffffffffffffffffffffffffffffffffffffffffffffffffffffffff1916908160001a905350600a85611c0f9190612766565b9450611b67565b8093505050505b919050565b828054611c2e906128a7565b90600052602060002090601f016020900481019282611c505760008555611c97565b82601f10611c6957805160ff1916838001178555611c97565b82800160010185558215611c97579182015b82811115611c96578251825591602001919060010190611c7b565b5b509050611ca49190611ca8565b5090565b5b80821115611cc1576000816000905550600101611ca9565b5090565b6000611cd8611cd38461266b565b612646565b905082815260208101848484011115611cf057600080fd5b611cfb848285612865565b509392505050565b6000611d16611d118461269c565b612646565b905082815260208101848484011115611d2e57600080fd5b611d39848285612865565b509392505050565b600081359050611d5081612dbc565b92915050565b600081359050611d6581612dd3565b92915050565b600081359050611d7a81612dea565b92915050565b600081519050611d8f81612dea565b92915050565b600082601f830112611da657600080fd5b8135611db6848260208601611cc5565b91505092915050565b600082601f830112611dd057600080fd5b8135611de0848260208601611d03565b91505092915050565b600081359050611df881612e01565b92915050565b600081359050611e0d81612e18565b92915050565b600060208284031215611e2557600080fd5b6000611e3384828501611d41565b91505092915050565b60008060408385031215611e4f57600080fd5b6000611e5d85828601611d41565b9250506020611e6e85828601611d41565b9150509250929050565b600080600060608486031215611e8d57600080fd5b6000611e9b86828701611d41565b9350506020611eac86828701611d41565b9250506040611ebd86828701611de9565b9150509250925092565b60008060008060808587031215611edd57600080fd5b6000611eeb87828801611d41565b9450506020611efc87828801611d41565b9350506040611f0d87828801611de9565b925050606085013567ffffffffffffffff811115611f2a57600080fd5b611f3687828801611d95565b91505092959194509250565b60008060408385031215611f5557600080fd5b6000611f6385828601611d41565b9250506020611f7485828601611d56565b9150509250929050565b60008060408385031215611f9157600080fd5b6000611f9f85828601611d41565b925050602083013567ffffffffffffffff811115611fbc57600080fd5b611fc885828601611dbf565b9150509250929050565b60008060408385031215611fe557600080fd5b6000611ff385828601611d41565b925050602061200485828601611de9565b9150509250929050565b60006020828403121561202057600080fd5b600061202e84828501611d6b565b91505092915050565b60006020828403121561204957600080fd5b600061205784828501611d80565b91505092915050565b60006020828403121561207257600080fd5b600061208084828501611de9565b91505092915050565b60008060006060848603121561209e57600080fd5b60006120ac86828701611de9565b93505060206120bd86828701611d41565b92505060406120ce86828701611dfe565b9150509250925092565b6120e1816127cb565b82525050565b6120f0816127dd565b82525050565b6000612101826126cd565b61210b81856126e3565b935061211b818560208601612874565b61212481612a40565b840191505092915050565b61213881612853565b82525050565b6000612149826126d8565b61215381856126f4565b9350612163818560208601612874565b61216c81612a40565b840191505092915050565b6000612182826126d8565b61218c8185612705565b935061219c818560208601612874565b80840191505092915050565b60006121b56032836126f4565b91506121c082612a51565b604082019050919050565b60006121d86032836126f4565b91506121e382612aa0565b604082019050919050565b60006121fb6025836126f4565b915061220682612aef565b604082019050919050565b600061221e601c836126f4565b915061222982612b3e565b602082019050919050565b60006122416024836126f4565b915061224c82612b67565b604082019050919050565b60006122646019836126f4565b915061226f82612bb6565b602082019050919050565b60006122876029836126f4565b915061229282612bdf565b604082019050919050565b60006122aa602e836126f4565b91506122b582612c2e565b604082019050919050565b60006122cd603e836126f4565b91506122d882612c7d565b604082019050919050565b60006122f06020836126f4565b91506122fb82612ccc565b602082019050919050565b60006123136018836126f4565b915061231e82612cf5565b602082019050919050565b60006123366021836126f4565b915061234182612d1e565b604082019050919050565b6000612359602e836126f4565b915061236482612d6d565b604082019050919050565b61237881612835565b82525050565b6123878161283f565b82525050565b60006123998285612177565b91506123a58284612177565b91508190509392505050565b60006020820190506123c660008301846120d8565b92915050565b60006080820190506123e160008301876120d8565b6123ee60208301866120d8565b6123fb604083018561236f565b818103606083015261240d81846120f6565b905095945050505050565b600060208201905061242d60008301846120e7565b92915050565b6000602082019050612448600083018461212f565b92915050565b60006020820190508181036000830152612468818461213e565b905092915050565b60006020820190508181036000830152612489816121a8565b9050919050565b600060208201905081810360008301526124a9816121cb565b9050919050565b600060208201905081810360008301526124c9816121ee565b9050919050565b600060208201905081810360008301526124e981612211565b9050919050565b6000602082019050818103600083015261250981612234565b9050919050565b6000602082019050818103600083015261252981612257565b9050919050565b600060208201905081810360008301526125498161227a565b9050919050565b600060208201905081810360008301526125698161229d565b9050919050565b60006020820190508181036000830152612589816122c0565b9050919050565b600060208201905081810360008301526125a9816122e3565b9050919050565b600060208201905081810360008301526125c981612306565b9050919050565b600060208201905081810360008301526125e981612329565b9050919050565b600060208201905081810360008301526126098161234c565b9050919050565b6000602082019050612625600083018461236f565b92915050565b6000602082019050612640600083018461237e565b92915050565b6000612650612661565b905061265c82826128d9565b919050565b6000604051905090565b600067ffffffffffffffff82111561268657612685612a11565b5b61268f82612a40565b9050602081019050919050565b600067ffffffffffffffff8211156126b7576126b6612a11565b5b6126c082612a40565b9050602081019050919050565b600081519050919050565b600081519050919050565b600082825260208201905092915050565b600082825260208201905092915050565b600081905092915050565b600061271b82612835565b915061272683612835565b9250827fffffffffffffffffffffffffffffffffffffffffffffffffffffffffffffffff0382111561275b5761275a612984565b5b828201905092915050565b600061277182612835565b915061277c83612835565b92508261278c5761278b6129b3565b5b828204905092915050565b60006127a282612835565b91506127ad83612835565b9250828210156127c0576127bf612984565b5b828203905092915050565b60006127d682612815565b9050919050565b60008115159050919050565b60007fffffffff0000000000000000000000000000000000000000000000000000000082169050919050565b600073ffffffffffffffffffffffffffffffffffffffff82169050919050565b6000819050919050565b600067ffffffffffffffff82169050919050565b600061285e8261283f565b9050919050565b82818337600083830152505050565b60005b83811015612892578082015181840152602081019050612877565b838111156128a1576000848401525b50505050565b600060028204905060018216806128bf57607f821691505b602082108114156128d3576128d26129e2565b5b50919050565b6128e282612a40565b810181811067ffffffffffffffff8211171561290157612900612a11565b5b80604052505050565b600061291582612835565b91507fffffffffffffffffffffffffffffffffffffffffffffffffffffffffffffffff82141561294857612947612984565b5b600182019050919050565b600061295e82612835565b915061296983612835565b925082612979576129786129b3565b5b828206905092915050565b7f4e487b7100000000000000000000000000000000000000000000000000000000600052601160045260246000fd5b7f4e487b7100000000000000000000000000000000000000000000000000000000600052601260045260246000fd5b7f4e487b7100000000000000000000000000000000000000000000000000000000600052602260045260246000fd5b7f4e487b7100000000000000000000000000000000000000000000000000000000600052604160045260246000fd5b6000601f19601f8301169050919050565b7f455243343930373a207472616e736665722063616c6c6572206973206e6f742060008201527f6f776e6572206e6f7220617070726f7665640000000000000000000000000000602082015250565b7f4552433732313a207472616e7366657220746f206e6f6e20455243373231526560008201527f63656976657220696d706c656d656e7465720000000000000000000000000000602082015250565b7f4552433732313a207472616e736665722066726f6d20696e636f72726563742060008201527f6f776e6572000000000000000000000000000000000000000000000000000000602082015250565b7f4552433732313a20746f6b656e20616c7265616479206d696e74656400000000600082015250565b7f4552433732313a207472616e7366657220746f20746865207a65726f2061646460008201527f7265737300000000000000000000000000000000000000000000000000000000602082015250565b7f4552433732313a20617070726f766520746f2063616c6c657200000000000000600082015250565b7f4552433732313a2061646472657373207a65726f206973206e6f74206120766160008201527f6c6964206f776e65720000000000000000000000000000000000000000000000602082015250565b7f45524337323155524953746f726167653a2055524920736574206f66206e6f6e60008201527f6578697374656e7420746f6b656e000000000000000000000000000000000000602082015250565b7f4552433732313a20617070726f76652063616c6c6572206973206e6f7420746f60008201527f6b656e206f776e6572206e6f7220617070726f76656420666f7220616c6c0000602082015250565b7f4552433732313a206d696e7420746f20746865207a65726f2061646472657373600082015250565b7f4552433732313a20696e76616c696420746f6b656e2049440000000000000000600082015250565b7f4552433732313a20617070726f76616c20746f2063757272656e74206f776e6560008201527f7200000000000000000000000000000000000000000000000000000000000000602082015250565b7f4552433732313a2063616c6c6572206973206e6f7420746f6b656e206f776e6560008201527f72206e6f7220617070726f766564000000000000000000000000000000000000602082015250565b612dc5816127cb565b8114612dd057600080fd5b50565b612ddc816127dd565b8114612de757600080fd5b50565b612df3816127e9565b8114612dfe57600080fd5b50565b612e0a81612835565b8114612e1557600080fd5b50565b612e218161283f565b8114612e2c57600080fd5b5056fea264697066735822122073e05ff241201f85d13fd135eec3decbae26b2b4a66b2a2bde1ae09cfb0c183464736f6c63430008040033",
  "linkReferences": {},
  "deployedLinkReferences": {}
}